:020000021000EC
:108000000040002085FB0100CDFB0100CFFB0100FB
:108010000000000000000000000000000000000060
:10802000000000000000000000000000D1FB010083
:108030000000000000000000D3FB0100D5FB0100A0
:10804000D7FB0100D7FB0100A5910100D7FB010080
:10805000D7FB010000000000E98D0100D7FB010003
:10806000D7FB0100D7FB0100D7FB0100D7FB0100C4
:10807000D7FB0100D7FB0100D7FB0100D7FB0100B4
:10808000D7FB0100FD840100D7FB0100D7FB0100F5
:10809000DD850100D7FB010025FB0100D7FB0100B6
:1080A000D7FB0100D7FB010000000000000000002A
:1080B00000000000000000000000000000000000C0
:1080C00010B5064C2378002B07D1054B002B02D0AE
:1080D000044800E000BF0123237010BDA42000204D
:1080E000000000000001020008B5084B002B03D07F
:1080F0000748084900E000BF07480368002B00D18B
:1081000008BD064B002BFBD09847F9E700000000A4
:1081100000010200A8200020A42000200000000090
:10812000164B002B00D1144B9D46402292029A1A06
:10813000924600218B460F461348144A121A00F04B
:1081400067F80F4B002B00D098470E4B002B00D048
:1081500098470020002104000D000D48002802D09F
:108160000C4800E000BF00F02DF82000290002F0CC
:10817000DBFE00F011F8C0460000080000400020BF
:108180000000000000000000A4200020242A00209D
:108190000000000000000000084B10B5041C002B7C
:1081A00002D0002100E000BF054B1868836A002B55
:1081B00000D09847201C00F033F8C04600000000B3
:1081C00040FF01000E4B70B500251E1C0D4CE41A3B
:1081D000A410A54204D0AB00F35898470135F8E746
:1081E00007F0A0FE084B00251E1C084CE41AA41042
:1081F000A54204D0AB00F35898470135F8E770BDAD
:108200009C2000209C2000209C200020A0200020FA
:10821000031C8218934202D019700133FAE77047A9
:10822000FEE7C046BFF34F8F024A034BDA60BFF34D
:108230004F8FFEE70400FA0500ED00E036DF7047DF
:1082400037DF7047032330B51340051C0720002B90
:1082500000D030BD08484C1CE4000260A4B20748BE
:1082600012190260064A00201370064A1370064B6A
:108270001D80064B1980ECE7C0200020C4200020A0
:10828000CB200020CA200020C8200020CC200020C5
:10829000F0B557464E464546E0B4514D061C2B8876
:1082A00082B00C1C171C09208B4205D202B01CBCEA
:1082B00090469946A246F0BD00236A46D371042237
:1082C000484B90465B68DB05DB0D4DD16B46D81DF6
:1082D000FFF7B4FF02285ED000283BD1424B434A4F
:1082E00019784348CBB20021994613780088DBB255
:1082F0008C46834202D20133DBB29C46E1452ED04C
:108300001378002199461378DBB2834201D20133FE
:10831000D9B243461170012B0CD062B66B46D879A6
:10832000FFF78EFF0223021C9A4339D1314B042000
:108330009945BBD04B46DB0098462F4B9A461B68AD
:1083400043441F60002E01D0002C2ED100220020BB
:108350009A80ABE700210022FFF764FFBEE74346A7
:10836000012B1AD10420A1E7103BD9B24AB2002A4E
:108370002BDB92082149C0329200525803210B4056
:10838000DB00DA4013069B0FDAB29046012B9DD139
:1083900001239846A2E772B6A0E7164B9946BCE7C0
:1083A00000210022FFF73EFFC0E74B462888311C22
:1083B0005843134B221C1B68181807F0A2FD5346A4
:1083C0001B68002043449C8070E70F230D4A0B403C
:1083D0009446083B9B089B0063445A680323CEE7FE
:1083E000C820002000ED00E0CA200020CB200020A3
:1083F000CC200020FFFF0000C020002000E100E0B2
:10840000C420002018ED00E0F8B54F464646C0B441
:10841000164C174D22782B789A4222D0154B164FC6
:108420009946164B164E98464A462078237811886E
:10843000DBB2C0B20022994201D90133DAB243461D
:108440001B6822709C463388C20058433B686244D4
:108450009C46918813686044984722782B789A420A
:10846000E2D10CBC90469946F8BDC046CA20002017
:10847000CB200020CC200020C4200020C0200020E1
:10848000C820002080218023184A8902D1508022F0
:10849000D221174B520289005A5040395A500122BA
:1084A0002F205A600138C046C046C046C046C0466C
:1084B000C046C046C046C046C046C046C046F1D1D0
:1084C0009A6000230B4A2F2013600138C046C04633
:1084D000C046C046C046C046C046C046C046C0466C
:1084E000C046C046F1D1044A1370704700E100E075
:1084F00000100140D0200020F0200020A021F0B585
:10850000002347462C4A490080B45350043153504D
:1085100004315350043153504C39535004315350AB
:10852000264B1B68002B37D0254900265258254979
:10853000254F0C68141B00222402240A904602E0F6
:10854000002D1AD02B1C1A68A24216D8A41AB618ED
:108550001A7CDD69002AF3D0424699691A745A6977
:108560003B68002B1BD0101C98470028E8D0002146
:108570000022FFF757FE002DE4D1144B14491A785E
:108580000B789A420ED0134A9B009E508021802384
:10859000114A49035B00D15004BC9046F0BD081C51
:1085A0009047CDE70132D3B2022B01D00B70EAE73E
:1085B00000230B70E7E7C04600100140D4200020E4
:1085C00004050000D0200020D8200020E420002056
:1085D000E5200020E820002000E100E0F0B55F4643
:1085E00056464D464446F0B4B44BB54A1B68B549AF
:1085F00089B0019309781378994200D1B1E1013330
:10860000DBB2022B00D100231370AF4A9B009B58B2
:10861000AA4A9946019B4B441B021B0A1360012383
:108620000493AA4B00241B689B46A94BD8461B7891
:108630001A1C0293A74B944607931B6803939F4B06
:108640001B680693A44B1B7805935B466646013E68
:10865000F2B29446FF2A4FD06246D000039A924667
:10866000504401784578A942F0D04A0052188778E2
:1086700001314668C9B27F1AB2467E1EB741D200A8
:108680007F42524439401778022F0AD0032FEAD193
:10869000002BE8D01C74DB69002BFBD14578984691
:1086A000E1E75668002B25D09E421AD01F1C00E03F
:1086B000171CFA69002AD6D09642F9D1321C3D1C0B
:1086C000BE4200D1EBE01768D269EA61002A06D009
:1086D00013689A465744176045784346C3E7457880
:1086E000C1E7DE691A1C002E00D1DDE0B046331C64
:1086F000151CE8E70023B6E76946774A097D181C90
:1087000011706E4A06990393116041466F4A1160D9
:10871000049A002A00D028E15B461B1A5A1E934196
:108720000025DBB20493079B00271B68039E06937A
:10873000624B1B689C46654B1B689A46664B1B78D0
:108740000593664B019301239846029B013BDBB2E4
:108750000293FF2B00D18FE0069ADB0093469B44E7
:10876000002D27D06968AB68281CED696246019C22
:108770008A1A1202120AA24250D8D3184246036043
:10878000476087600274C761002E56D03168341C80
:10879000994204D35FE01168994263D2141CE269E4
:1087A0005B1A002AF7D10360331CC261E0611E1C12
:1087B000002DD7D15B465A461B7852789A42C4D0D6
:1087C000594649685A0089465946D2180133DBB2E6
:1087D0000B708978D2004A4499424AD01178506887
:1087E000331C0129E3D1037C99464946331C0029F7
:1087F000DDD191684160D36883601469C4605269B7
:108800008261059A002AB1D04A4600214260624640
:10881000019C8A1A1202120AA242AED96246511A69
:108820000902090A99420CD242465B1A036047606A
:1088300087600274C761002EA8D1031C82461E1CEB
:10884000B6E743460760476087600374C761002E40
:10885000F3D000233168CB1A3360031CC661824613
:108860001E1CA5E7C91A11600360C261331CE061D8
:108870009DE75B461D70B1E75246144B1A60039B9F
:10888000B3422FD1049B002B2CD10023124A13702A
:1088900009B03CBC90469946A246AB46F0BDDE69A5
:1088A0003A1C002E00D021E701250D4B9D600023CE
:1088B000069601369846151C059604E7D020002040
:1088C000E4200020E5200020E8200020D420002023
:1088D000DC200020E0200020E6200020FEFF7F00BA
:1088E00000100140002E63D0484B49493568CC58F0
:1088F000484B494E1B683078E21A1202120A0332C2
:108900009046002861D04246AA4200D22A1CA820E4
:10891000D21812023E49130AC0003C4D0B504A596E
:108920001B1B121B1202120A1B0203321B0A9A4261
:10893000ABD94B590B502F200138C046C046C0461A
:10894000C046C046C046C046C046C046C046C046F7
:10895000C046F1D180218023304A89025B00D1508A
:1089600093E70023994604935BE600250021002449
:108970004846464613E01A6882421CD8DE68801AD0
:1089800089181C60DF69002E07D0DD611D1C019A6B
:108990009E608A181202120A5A603B1C3E1C002B71
:1089A000E9D11F4B1E600023039301330493BAE601
:1089B000FFF768FD69E78146194903930E60494650
:1089C000521A1A6001230493ADE68020D127400299
:1089D000BF00C851403FC851C02280270F48BF0286
:1089E00052008750076001272F200F600138C046D2
:1089F000C046C046C046C046C046C046C046C04647
:108A0000C046C046C046F1D137707CE7040500007F
:108A100000100140D0200020F020002000E100E004
:108A2000D4200020F8B54F464646C0B40326351C76
:108A300080460F1C141C994615400720002D03D0BA
:108A40000CBC90469946F8BD002A44D0FFF71AFDA9
:108A50004A46224B80201A60221C214B18321E707D
:108A6000204B62601C607B00DB19DB00D218E260E7
:108A7000D318C022636125706570A7702572657276
:108A8000A77225746574A774C524FF21164B400393
:108A90001D60164B52001D70154BA4001D70154B28
:108AA00098501A598A433F390A431A51A122186033
:108AB00040461149D2008850C42080001C580F4AFB
:108AC0002240C024240222431A500D4B0020CA58D1
:108AD0000C4B1A60B4E7034B1A60B1E7D8200020B2
:108AE000DC200020E0200020D4200020E420002012
:108AF000E520002000E100E000100140FF00FFFF42
:108B000004050000D020002010B50B4B1B68002B83
:108B10000BD0002A07D0002805D0036808201C7C51
:108B2000002C04D010BD0720FCE70820FAE7597498
:108B30005A610020F6E7C046E0200020F0B5474625
:108B400080B4374B1C68002C08D0002806D00723BF
:108B5000042905D8181C04BC9046F0BD0823F9E789
:108B60004369002BFAD00025437CA846012B2ED068
:108B70002C4B10255B68DB05DB0D2CD16419637869
:108B8000A5785E1CF6B2AD1B6F1EBD416D422E4036
:108B90002578B5421DD05D00EB186568DB00ED1847
:108BA0000423002DD6D0033B2B7068601E4B1F485A
:108BB000C358E960AB60434680212B6180236A6122
:108BC0001B4A5B0049036670D1500023C2E7884608
:108BD000CEE70423BEE7103BDEB275B2002D13DBF7
:108BE000AD08134EC035AD00AD5903263340DB0050
:108BF000DD402B069B0FDBB20025012BBED00835D4
:108C0000032BBBD00835B9E70F230A4D3340AC46E0
:108C1000083B9B089B0063445D680323E6E7C0466E
:108C2000E020002000ED00E00405000000100140FD
:108C300000E100E018ED00E030B52D4A031C126899
:108C40000820002A2DD0002B2BD05969002928D0CC
:108C500000211974274910254968C905C90D23D178
:108C600055196A78A978541CE4B2091B481E814141
:108C700049420C402978A14214D051008A186968F1
:108C8000D2008C4662440420002A0AD0022153609C
:108C90001170802380210020174A49035B006C700B
:108CA000D15030BD0420FCE71039CCB260B20028AE
:108CB00013DB8008104CC030800000590324214091
:108CC000C900C8400106890FC9B200250129C7D0D3
:108CD00008350329C4D00835C2E70F2107482140D1
:108CE0008446083989088900614448680321E6E719
:108CF000E020002000ED00E000E100E018ED00E0E1
:108D000010B5041C082904D0002000210022FFF720
:108D100089FA60682368984710BDC04600B583B0E3
:108D20000090019168460821024AFFF7B1FA03B0AA
:108D300000BDC046018D0100602130B54568027854
:108D40006B0119400323134019431C2342789200FE
:108D50001A400B1C1343C02292022A4000D0134336
:108D6000084A09480949145821401150A0210024FB
:108D7000C9005450FF211458090221400B431350DD
:108D800030BDC0460070004004050000FF00FFFF3A
:108D900030B51249124C134A0B59050213402B43AC
:108DA0000B51002816D0A0230122DB00CA5001235A
:108DB00080200A4A4000136013580849002BFBD05A
:108DC000802300225B00CA50A123DB00C858012386
:108DD0004B6030BDA023DB00C850E8E700700040C6
:108DE00004050000FF00FFFFF8B54F464646C0B43B
:108DF000C74A00241368012B00D1CBE0C54B1A6889
:108E0000012A00D1D4E0C44B1A68012A00D1DFE066
:108E1000C24B1A68012A00D1EAE0C14B00251A684A
:108E2000012A00D1F5E023070BD0E30700D506E1C6
:108E3000A30700D512E1630700D51DE1230700D584
:108E4000F1E0002C03DB0CBC90469946F8BD4023B2
:108E5000B44CE15C4BB2013321D0C9B2C023081C31
:108E60009843231820331B785BB29B001E59002EB9
:108E700015D0A022D205944683009C44E02362468C
:108E8000DB00D3580122C0278240BF023B40890942
:108E90001B0C154200D106E1022B00D160E14123F9
:108EA000E15C4BB2013321D0C9B2C023081C984306
:108EB000231820331B785BB29B001E59002E15D05F
:108EC000A022D205944683009C44E0236246DB0046
:108ED000D3580122C0278240BF023B4089091B0CA6
:108EE000154200D1D8E0022B00D1FDE04223E15C25
:108EF0004BB2013321D0C9B2C023081C98432318B8
:108F000020331B785BB29B001E59002E15D0A02287
:108F1000D205944683009C44E0236246DB00D3588C
:108F20000122C0278240BF023B4089091B0C154229
:108F300000D1D2E0022B00D1FEE04323E15C4BB232
:108F4000013300D17FE7C9B2C023081C984323181E
:108F500020331B785BB29B001E59002E00D172E7B4
:108F6000A0230124DB059C46E023C0278440820027
:108F70006244DB00D358BF023B4089091B0C2542E9
:108F800000D197E0022B00D05DE7032900D199E0E2
:108F9000B04758E7C1216448890041580B4200D1CD
:108FA0002CE75C4B14601A680134012A00D02AE7D0
:108FB000C1225D499200895802220A4200D122E76B
:108FC00000211960544B14431A68012A00D01FE78E
:108FD000C12255499200895804220A4200D117E75C
:108FE000002119604D4B14431A68012A00D014E780
:108FF000C1224D499200895808220A4200D10CE74B
:1090000000211960464B14431A680025012A00D03C
:1090100009E71D6080231B061C43A022A223D20562
:10902000DB00D558FFE6404A404BD058D1583D4B65
:10903000C0048903C00E890FDB68984701E7A223AB
:10904000394ADB00D058D158364BC00489031B681D
:10905000C00E890F9847A30700D4ECE6344B324A80
:10906000D058D1582F4BC00489035B68C00E890FBC
:109070009847630700D4E1E6A3232B4ADB00D058CE
:10908000D158284BC00489039B68C00E890F9847AC
:10909000230700D4D5E6C6E7032B00D026E7032933
:1090A00072D0B04722E7032B00D0F8E6032973D033
:1090B000B047F4E6032B00D0C5E6032900D067E7EC
:1090C0008027BF02E023DB00D5581A4C2C40D45037
:1090D000D4582743D750B047B5E6032B00D02CE730
:1090E000032955D0B04728E70329DAD1B946E02350
:1090F0006246DB00D258904647460E4A3A406746E1
:10910000FA50FA584F4617436246D750B047EDE63B
:109110000061004004610040086100400C610040B3
:109120007C610040F4200020006000401C0500002D
:1091300014050000FFFFFCFF0329D3D1B946E0234B
:109140006246DB00D25890464746154A3A40674689
:10915000FA50FA584F4617436246D750B047ECE6EC
:109160000329A5D1B946E0236246DB00D2589046D8
:1091700047460B4A3A406746FA50FA584F4617435B
:109180006246D750B0478AE680239B029946AEE7F5
:1091900080239B029946D2E780239B029946E2E70F
:1091A000FFFFFCFFC12210B5514B92009A5884B0CA
:1091B00092054CD54F4A1168002948D00021116012
:1091C0008121C2228900920099504B4B5A7D002A7E
:1091D00002D10121494A1160022269460A70902198
:1091E0004348C9004258425069460392DA7C6846B7
:1091F0000A72DA68196801920022DA745B6898478B
:109200003F4A1368002B10D03B4B188A997C81424F
:1092100051D9002111601A8A9968895C1A8A013231
:1092200092B21A82374B324AD150374B1A68002A11
:109230000BD000221A60304B5A7D002A02D0012147
:109240002B4A1160DA7C002A44D104B010BDC1233E
:10925000274A9B00D3585B07D2D52C4B19680029AD
:10926000CED00021A3241960234BE400187DD968D7
:1092700012590A541A7DD87C0132D2B21A751A7D5D
:109280009042BDD15A7D002A02D101201B4A1060B4
:109290008124C2221648A400920084506C461A7D94
:1092A00001202272002220700191DA741968684648
:1092B0005B689847A4E7002010600029B5D06A4693
:1092C000107011729A689874196801925B68684608
:1092D0009847AAE768461A7D01210272DA68017090
:1092E000019200221968DA745B689847ADE7C046BE
:1092F00000200040242100403C21002004200040A8
:109300001C2100401C0500004421004008210040B1
:1093100029DF704728DF704730B583B0002806D0BA
:10932000112806D108230F4A11680B43136003B0BC
:1093300030BD021C0C4801788B005B189B00C518DF
:10934000281CE9686B694C0064182979074DA40052
:109350002D680C300095064D6459A0470422054B3A
:109360001A70E4E73C22002054210020442200200F
:109370002822002041220020F0B55F464D46444699
:109380005646F0B45E4F85B03C785E4D012C00D15E
:1093900088E0002C00D16DE0022C16D0032C0DD1FA
:1093A000594B1868FFF7B6FF021E07D0112800D0EE
:1093B00080E00823554A11680B43136005B03CBC9C
:1093C00090469946A246AB46F0BD504B99461B6865
:1093D00003932B789E00F3189B00EE183369984690
:1093E00080235B05196940460904090C9B4606F079
:1093F000F3FB454B824618605B4619694346581E8D
:10940000F3880904C018090C06F0E6FB82454CD02D
:109410000323039C9C434B461C603D4B1B68002B65
:1094200002D10233234262D000223A4B1A703A4BE7
:109430005869431C54D080235B0519690904090C41
:1094400006F0CAFB031C8022520510691169000452
:10945000013B000C09045843090C06F0BDFBFFF763
:1094600059FF021EAAD0112824D108231C434B46C1
:109470001C60A3E7294B1C60294B1C606B78002BF8
:109480009CD02B789A00D3189B00ED18EA88254BC6
:109490001A602B79032B27D0042B25D0012B00D069
:1094A0008CE73B7000F000FC88E70123039A9A43A5
:1094B0001443B0E72B789800C01880002E18301C99
:1094C000184DF3682D685C00E418317973690095D4
:1094D000154DA4000C306459A04704233B706DE780
:1094E00080235B055B69AEE700F020F866E7094A78
:1094F00050461370FFF70EFFFFF70EFF5EE7C04602
:109500004122002054210020502200203C22002033
:109510004C22002040220020001000104822002091
:10952000202200204422002028220020F0B55F469F
:1095300056464D464446F0B45B4B5C481A7880274B
:1095400091008A1892009B18DD681E696A00521902
:109550009200821814895089526860438046904472
:10956000DA881B89141C9946514B92469B4600236E
:109570005A467F05396983B009044C441360090CCD
:10958000301CA41906F0AEFB002924D13B699BB224
:109590009A4537D044456CD0022D33D0301C396900
:1095A000484489B206F09EFB424B8908196039692C
:1095B000201C0904090C06F095FB002932D1022277
:1095C0003D4B1A70FFF7D8FE03B03CBC904699465D
:1095D000A246AB46F0BD022D14D0301C3969484478
:1095E0000904090C06F07EFB324B890819603969C1
:1095F0004445E4D00904090C201C06F073FB002943
:10960000DDD00FE080235B051969301C0904090CCB
:1096100006F0E2FA0322294B1860274B1A70FFF775
:10962000ABFED1E780256D0529692B696A4699460D
:109630004346D380D08889B206F0CEFA6A464B46BC
:10964000A6B2D380071CD188301C06F0C5FABFB281
:1096500080B287421DD02C692969301C89B206F07E
:1096600041FB5B462404240C89B2641AA4081C60E4
:10967000A5E74B46002BC5D0022DC3D0301C39695D
:10968000484489B206F02EFB0A4B890819603B69F1
:1096900095E7434624041B041A0C240C131B5A465A
:1096A0009B0813608BE7C04654210020282200202D
:1096B000242200204C2200204122002050220020A1
:1096C000F8B546464F46C0B41D4D08AC24886E78A8
:1096D000A44604240A2E2DD02C78A046A419092CC7
:1096E00000DD0A3C14277C432C196261221C207186
:1096F0000C32B94681C981C2E380634623810024CC
:10970000104B01361A786E70A24213D142464F4672
:109710005743ED190C4AE98811602A79032A07D0CA
:10972000042A05D0012A05D11A70FFF725FE01E0B1
:10973000FFF7FCFE201C0CBC90469946F8BDC046C5
:10974000542100204122002044220020082170B52D
:109750000C1C244A82B013681C4009D08B43136050
:10976000214B224A1B789B009B58984702B070BD42
:109770001F4D2B789800C3189B00EE1831790429EF
:109780002AD0F268736950008218301C194E92007A
:1097900036680C300096184E96590022B0470120CA
:1097A0002A7893009B189B00EB181C71DC80D86012
:1097B0001C615C611C816B780132013BD2B26B7021
:1097C0000A2A06D02A7000220C4B1A70FFF7D4FD2B
:1097D000CCE700232B70F6E70122084B1A70FFF745
:1097E000CBFDC3E73C2200204022002058FF0100AF
:1097F0005421002044220020282200204122002061
:1098000030B5244B83B05869431C3ED080235B05A0
:1098100019690904090C06F0DFF9041C80235B05B3
:109820001869196900041A69000C631E58431A4B21
:1098300009041B68090C92B292085943FFF768FDAE
:10984000021E06D0112806D10823144A11680B43C2
:10985000136003B030BD12490B789800C018800027
:109860000D18281CEB6829795C00E4186B690D4D14
:10987000A4002D680C3000950B4D6459A0470422BC
:109880000A4B1A70FFF778FDE3E780235B055C69FC
:10989000C4E7C04600100010502200203C220020E7
:1098A00054210020442200202822002041220020B0
:1098B000802230B55205146921492404230C0C6818
:1098C00083B0013C5C431F4B5869431C35D0116980
:1098D0000904090C06F080F980235B0519691A4B0D
:1098E00009040138090C41431A68201CFFF710FDD8
:1098F000021E06D0112806D10823144A11680B4312
:10990000136003B030BD12490B789800C018800076
:109910000D18281CEB6829795C00E4186B690D4D63
:10992000A4002D680C3000950B4D6459A04704220B
:109930000A4B1A70FFF720FDE3E75069CCE7C046F9
:1099400050220020001000104C2200203C22002059
:1099500054210020442200202822002041220020FF
:10996000082330B51E4D83B02C68234214D1A307C1
:1099700002D501231C432C6002221A4B1A701A4B89
:109980001868FFF7C7FC021E04D011280DD1082368
:109990001C432C6003B030BD9C43124B134A1B7810
:1099A0002C609B009B589847F4E711490B7898006E
:1099B000C01880000D18281CEB6829795C00E41899
:1099C0006B690C4DA4002D680C3000950A4D64594C
:1099D000A0470422094B1A70FFF7CEFCDAE7C04615
:1099E0003C220020402200205022002058FF01008D
:1099F000542100204422002028220020412200205F
:109A0000F0B58027274C7F05237839699A00D31851
:109A10009B00E3181A89DD881B69AD18ED1809044D
:109A200083B0090C281C06F05DF91F4B0E1C586909
:109A3000431C35D039690904090C06F0CDF88023A0
:109A40005B05196901380904090C4143174B891951
:109A50001A68281CFFF75CFC021E06D0112806D1EC
:109A60000823134A11680B43136003B0F0BD237839
:109A70009800C01880002618301C0E4CF36824682B
:109A80005D003179ED18736900940B4CAD000C301A
:109A90002C59A0470422094B1A70FFF76DFCE4E72C
:109AA0007869CCE754210020001000102422002007
:109AB0003C220020442200202822002041220020B5
:109AC00030B5154B83B01868FFF724FC021E06D092
:109AD000112806D10823114A11680B43136003B003
:109AE00030BD0F490B789800C01880000D18281C55
:109AF000EB6829795C00E4186B690A4DA4002D68B5
:109B00000C300095084D6459A0470422074B1A7089
:109B1000FFF732FCE3E7C046502200203C22002041
:109B2000542100204422002028220020412200202D
:109B3000082370B52A4D82B02C68234209D09C437B
:109B4000284B294A1B782C609B009B58984702B0F1
:109B500070BD0122234B1A70244B5869431C3BD023
:109B600080235B0519690904090C06F035F8061C09
:109B700080235B051869196900041A69000C731EBB
:109B800058431B4B09041B68090C92B292085943B5
:109B9000FFF7BEFB021EDAD0112803D108231C43B5
:109BA0002C60D4E713490B789800C01880000D187A
:109BB000281CEB6829795C00E4186B690E4DA40041
:109BC0002D680C3000950D4D6459A04704220C4BB4
:109BD0001A70FFF7D1FBBAE780235B055E69C7E720
:109BE0003C2200204022002058FF010000100010FD
:109BF000502200205421002044220020282200204E
:109C00004122002030B5224B83B05869431C3AD022
:109C100080235B0519690904090C05F0DDFF031CAD
:109C200080225205106911690004013B000C0904EF
:109C30005843090C05F0D0FFFFF76CFB021E06D05D
:109C4000112806D10823134A11680B43136003B08F
:109C500030BD11490B789800C01880000D18281CE1
:109C6000EB6829795C00E4186B690C4DA4002D6841
:109C70000C3000950A4D6459A0470422094B1A7014
:109C8000FFF77AFBE3E780235B055B69C8E7C04623
:109C9000001000103C22002054210020442200200B
:109CA0002822002041220020F0B58027404D7F056A
:109CB0002C783969A60033199B00EB18DA8889B231
:109CC00083B08A4218D8196918898C469208604472
:109CD0005969FFF71DFB021E06D011282DD108235C
:109CE000344A11680B4313603419A4002C19E2881C
:109CF000314B1A6003B0F0BD196938698C46000415
:109D0000000C121A18893C69596960448018891836
:109D1000A2B29208FFF7FCFA021E06D0112827D142
:109D20000823244A11680B43136080235B051B69D9
:109D3000214A1B041B0C1360DCE72B789800C01829
:109D400080002918CB68081C5F00FF180B79BF0042
:109D50009C464B6919490C300968009118497F5895
:109D60006146B8470422174B1A70FFF705FBBBE7A3
:109D70002B789800C01880002E18301C0F4DF36807
:109D80002D685C003179E418736900950C4DA400CE
:109D90000C306459A04704220A4B1A70FFF7ECFA02
:109DA00080235B051B69044A1B041B0C1360A1E79D
:109DB000542100203C2200202022002044220020A8
:109DC00028220020412200200823F0B54D464446B9
:109DD0005F4656461A1CF0B4774D85B02C68224079
:109DE00091465FD1754F3E78B30003939B199B005A
:109DF000FB181A69511EDA881B898A18D318029336
:109E000080235B059B4619696D4B1B689846002BA8
:109E100057D16C4B1B689A4680235B0519690298E1
:109E20000904090C05F0D8FE824500D285E04346BE
:109E300000D17AE0002B00D079E0039B9C46664479
:109E4000B600BC192179042900D1AFE0201CE368D9
:109E50000C305A00D21863695B4C9200246800945D
:109E60005A4C14590022A047414601203A789300E9
:109E70009B189B00FB181971D86041464046D98059
:109E80001861586118817B780132013BD2B27B7036
:109E90000A2A00D17BE03A7000224D4B1A70FFF77E
:109EA0006BFA07E09C434B4B4B4A1B782C609B00A2
:109EB0009B58984705B03CBC90469946A246AB4695
:109EC000F0BD404B09041B68090C02989A4605F046
:109ED00083FE5045A0D14A46404B1A6001234A46B2
:109EE00023432B603B4B1A703D4B5869431C51D0A8
:109EF0005B4619690904090C05F06EFE031C8022FB
:109F00005205106911690004013B000C0904584313
:109F1000090C05F061FEFFF7FDF9021ECAD01128F9
:109F20003BD109231C432C60C4E7002B05D003223E
:109F3000284B1A70FFF764FDBCE70022274B504600
:109F40001A60244B02321A70FFF7E4F9021EB1D0F6
:109F5000112818D03B789900CB189B00FD18E968B0
:109F60004C006418281C29796B69174DA4002D68D2
:109F70000C300095154D6459A0470422144B1A70FB
:109F8000FFF7FAF996E708231C432C6092E70023B9
:109F90003B7081E75B465B69B1E73B789800C0188E
:109FA00080003D18EB685C00E418DBE70122084BF9
:109FB0001A70FFF7E1F97DE73C22002054210020D0
:109FC00024220020502200204422002028220020A9
:109FD000412200204022002058FF01004C22002096
:109FE00000100010F0B54E46574645460823E0B431
:109FF0008C4E82B03468234200D093E08A4B1A68BA
:10A00000571C1F60894B1D68002D50D1884B802242
:10A0100099461B7852059D00ED18AB009846082321
:10A020004D469A464544AA4453469B681169581EBA
:10A03000EB880904C0182B89090CC01805F0CCFD69
:10A04000874200D282E07B4B00D17BE01F68002F6B
:10A0500000D19CE001231A1C224000D08DE0234354
:10A060003360754B1A70754B5869431C00D1BEE0C4
:10A0700080235B0519690904090C05F0ADFD031C7B
:10A0800080225205106911690004013B000C09048B
:10A090005843090C05F0A0FDFFF73CF9021E49D01A
:10A0A000112800D0A7E009231C43346042E00421BA
:10A0B000614B197080235B051F693F043F0C5743B8
:10A0C0005E4A5069421C3BD019690904090C05F02D
:10A0D00083FD80235B05196901380904090C41439C
:10A0E0002A1C381CFFF714F9021E23D011284AD06D
:10A0F0004F4801788B005B189B00C518281CE96845
:10A100004C006418A40029796B694D4D0C302D6802
:10A1100000954C4D6459A04704224B4B1A70FFF731
:10A120002BF907E09C43444B484A1B7834609B0062
:10A130009B58984702B01CBC90469946A246F0BD79
:10A140005869C6E71B68002B00D083E702223A4B10
:10A15000381C1A70FFF7DEF8021EEBD0112812D05F
:10A160004B461B789900CB1849469B00CD18E968EF
:10A17000281C4C006418A400C5E703222E4B1A705B
:10A18000FFF73EFCD6E708231C433460D2E7297969
:10A1900004293DD053464046294C5B6824685A0048
:10A1A000D2186B690094274C920048440C30145923
:10A1B0000022A0474B4601201A78494693009B187D
:10A1C0009B004B441F71DF80D8601F615F611F815E
:10A1D0004B465B780132013BD2B24B700A2A1DD04C
:10A1E0000A700022184B1A70FFF7C6F8A2E7802306
:10A1F0005B055B6944E74B461B789800C0184B46EB
:10A2000080001D18EB68281C5C00E418A4007AE7A5
:10A2100001220D4B1A70FFF7AFF88BE700230B708C
:10A22000DFE7C0463C220020502200204C220020C4
:10A230005421002024220020402200200010001081
:10A2400044220020282200204122002058FF010043
:10A2500070B5274C82B023789800C018800025186C
:10A26000281CEB6829795A00D2186B69214D92009D
:10A270002E680C300096204E96590022B0470021DF
:10A280000126227893009B189B00E3181971D9804E
:10A29000DE6019615961198163780132013BDBB2DB
:10A2A000D2B263700A2A0BD022700021134E1448D8
:10A2B0003160144E01703160002B05D102B070BDC9
:10A2C000002222700022F0E793009A189200A4184E
:10A2D000E3882B602379032B07D0042B05D0012BB7
:10A2E000ECD10370FFF748F8E8E7FFF71FF9E5E75F
:10A2F000542100204422002028220020482200204F
:10A300004122002020220020F0B5474680B4654D50
:10A3100004262C7882B0231CB3430ED0022810D020
:10A3200003280AD10821604A1368194258D0022C28
:10A330004FD0032C48D0012C46D002B004BC90462C
:10A34000F0BD022C45D0032C59D0012CF5D10821A9
:10A35000554A1368194237D1544F55493B780E6816
:10A360009A00D3189B00FA18D1888E1BB6B2D680FB
:10A37000002E6ED1D1681379480041189846101C00
:10A3800053694C4A890012680C3000924A4A8A5834
:10A39000414694460022E0473A7893009B189B0080
:10A3A000FB181E71DE80DC601E615E611E817B78A1
:10A3B0000132013BD2B27B700A2A66D03A70002388
:10A3C0002B70FEF7D9FFB8E78B431360FEF7D4FF7D
:10A3D000B3E73A4B3A4A1B789B009B589847ACE747
:10A3E000384A136801331360032B35D0022CEDD1AA
:10A3F000324B354A1B789B009B5898479DE70821B4
:10A40000294A13681942DFD1304B284E1A68347834
:10A41000571C1F6080235B051969A30098461B1910
:10A420009B00F3181A690904501EDA881B898018EA
:10A43000C018090C05F0D0FB8742C7D32CD0231CD1
:10A4400043449B00F3181B79042B20D0FFF700FF37
:10A4500073E7FFF729FC70E71448027893009B1814
:10A460009B00C418201CE268636951008A18217996
:10A47000104C920024680C3000940F4C14590D229B
:10A48000A0472E70FEF778FF57E73E7097E701234D
:10A490002B70FEF771FF50E70D4B1B68002BCED1E0
:10A4A00094E7C046412200203C2200205421002095
:10A4B00020220020442200202822002040220020C8
:10A4C00044FF01004822002058FF010050220020D4
:10A4D0002422002010B500202C2400220121464B0C
:10A4E00018551434185502341A5302341A531034C0
:10A4F000185502341A530234D96018761962596318
:10A500009964D9651A705A701A71DA801A615A61A1
:10A510001A815A835A629A629A83DA859A63DA6355
:10A520001A86DA641A651A665A661A531034185570
:10A5300002341A5302341A531034185502341A5381
:10A540000634195104341A5104341A510C3C1A536C
:10A550001034185502341A530634195104341A5160
:10A5600004341A510C3C1A531034185502341A533F
:10A570000634195104341A5104341A510C3C1A533C
:10A5800010341855BA201A52063019501967C331C1
:10A590005A5004315A500C395A525A679A67174B1D
:10A5A0001A80174B5869431C22D080235B05196918
:10A5B0000904090C05F010FB80235B051B690238B8
:10A5C0001B041B0C58430F4B0021186000230E4A3C
:10A5D000002013600D4A1360138153810C4A1170DF
:10A5E0000C4A13600C4A136004220C4B1A6010BD15
:10A5F00080235B055869DFE75421002034220020C6
:10A6000000100010382200205022002028220020B4
:10A610004122002048220020202200203C2200204D
:10A62000F0B557464E464546E0B4344B1A68082309
:10A63000520705D4181C1CBC90469946A246F0BD92
:10A64000002857D0002955D00368002B52D080270E
:10A650007F053A69868892B207239642EAD80F2E80
:10A66000E8D9C288002AE5D0254B724399461B6879
:10A67000041C9846234B424458690D1C9246431CC7
:10A680003AD039690904090C05F0A6FA802252056E
:10A69000136901381B041B0C584307238245C9D892
:10A6A000B107C7D1184F033B3E88012EC2D04346A5
:10A6B0006B600C232E604546734314480136C11865
:10A6C0004D6025681D50A5880D81E088488168434C
:10A6D000136911699BB21469C018013889B2A4B218
:10A6E00005F00AFB231C4A464343434413603E8063
:10A6F00000239FE70E239DE77869C7E73C220020EF
:10A7000038220020001000103422002028220020CF
:10A7100030B5114B1C680823640701D4181C30BDE8
:10A72000002806D0002A04D00368002B03D007239A
:10A73000F4E70E23F2E7094C2568002DF7D02589B0
:10A740004068694309186089646868430019814258
:10A75000EDD213605160E1E73C2200202822002066
:10A76000F0B5474680B41E4C051C246882B0082012
:10A77000640703D402B004BC9046F0BD00292CD07D
:10A78000002D2AD02C680138002CF3D1154C2668F6
:10A79000002EEFD06E686789B04626897743B446AD
:10A7A0006668BC19A045E5D2002AE3D09445E1D300
:10A7B000D418A445DEDB09308C07DBD10324234207
:10A7C000D8D146462642D5D1181C131C00900A1C2D
:10A7D0000120291CFEF774FFCCE70E20CAE7C04613
:10A7E0003C22002028220020F0B5474680B41E4CB1
:10A7F000051C246882B00820640703D402B004BC9E
:10A800009046F0BD00292CD0002D2AD02C680138AC
:10A81000002CF3D1154C2668002EEFD06E686789A6
:10A82000B04626897743B4466668BC19A045E5D290
:10A83000002AE3D09445E1D3D418A445DEDB0930E7
:10A840008C07DBD103242342D8D146462642D5D1FA
:10A85000181C131C00900A1C0420291CFEF730FF52
:10A86000CCE70E20CAE7C0463C2200202822002068
:10A87000F0B54F464646C0B4254C83B02568082441
:10A880006D0705D4201C03B00CBC90469946F0BD62
:10A89000002906D0002804D00C68002C03D007241F
:10A8A000F0E70E24EEE71B4D2E68002EF7D04E6821
:10A8B0002F89B4466E897E43B1466E68B0464E46D7
:10A8C0004644B445EBD2002AE9D09742E7D3D618E4
:10A8D000B742E4DB860701D01024D3E703263342D6
:10A8E000FAD167463E40F7D188466344191C171CCD
:10A8F000814605F006FB42460C231268009753433D
:10A900004046ED580221321C4B46A847BAE7C046E4
:10A910003C22002028220020F0B54F464646C0B415
:10A92000204A83B012680824530705D4201C03B0C2
:10A930000CBC90469946F0BD002830D00368013C1D
:10A94000002BF3D1184B1A68002AEFD01D895E89BD
:10A950005A686E434768B618B742E7D20934BB0756
:10A96000E4D188468146291CB81A05F0BBF9093C98
:10A970000029DBD14046291C05F0B4F989B2002931
:10A98000D4D14346002BD1D04744BE42CED300227F
:10A99000032000924946FEF793FE041CC6E70E24EE
:10A9A000C4E7C0463C22002028220020074B1A683A
:10A9B0000823520701D4181C7047002804D0044B08
:10A9C0005B7803600023F6E70E23F4E73C220020C7
:10A9D00054210020002300200B7070470020704796
:10A9E00000207047072070470620704708B50320F5
:10A9F000FFF7FAFF031C0020002B02D0062B00D02B
:10AA0000181C08BD10B50388102B08D0112B05D1D8
:10AA1000294A1368013B1360002B07D010BD264C58
:10AA20002368002B11D001332360F7E700200221B7
:10AA30000122FFF7D7FF00282BD0072829D01F4B72
:10AA40001B68002BEAD09847E8E70020002101228C
:10AA5000FFF7C8FF002808D0072806D0174B1B684F
:10AA6000002B00D098472368DDE701200221072250
:10AA7000FFF7B8FF002801D00728EFD100200221FE
:10AA80000422FFF7AFFF0028EDD00728E6D12368A6
:10AA9000C9E7012002210722FFF7A4FF002801D007
:10AAA0000728CCD1002000210A22FFF79BFF0028B5
:10AAB000B4D00728C3D1B1E7582200205422002087
:10AAC00010B5244B82B00C1E186018D06B460020C5
:10AAD000991DFFF77FFF002801D002B010BD6B4623
:10AAE0000130D91DFFF776FF0028F6D16B46DB79E0
:10AAF000002B29D16B469B79002B28D12370164B54
:10AB00001B68002B01D00020E7E700200221012272
:10AB1000FFF768FF002801D00728DED101200221BD
:10AB20000722FFF75FFF002801D00728D5D10020BA
:10AB300000210A22FFF756FF0028E4D0C31F5A1E47
:10AB400093415B421840C8E702232370D7E70B23E9
:10AB50002370D4E7542200205822002076DF70476B
:10AB600078DF70477ADF70477CDF7047A5DF70477A
:10AB7000A8DF704760DF704767DF70473CDF7047D2
:10AB800048DF70477047C0467047C0467047C046B0
:10AB900008B50B78142B03D0212B01D0002008BD61
:10ABA000011C0422014805F0ACF9F7E7C42200209B
:10ABB00070B50820FEF7ECF83D4D7F382870042072
:10ABC000FEF7E6F87F3868701020FEF7E1F87F386E
:10ABD000A8702020FEF7DCF8A223A0227F38E870BE
:10ABE000DB00D205D4580020E404240EE443002303
:10ABF000E4B2304EAC80EB563056181A05F06EF9C0
:10AC0000012831DD01212B68FF203360AB88E20988
:10AC1000B3800B1CD20223401A43A3080B405B00F5
:10AC20001A4363080B40DB001A43E3080B401B0187
:10AC30001A432309DB0103401A4363090B409B01BC
:10AC40001A43A30919408C0214431B480021062211
:10AC50002B1CAC8003F0D2FD002804D0301CFF2157
:10AC60000622FDF7D5FA70BD01230120EB563056C0
:10AC7000181A05F033F90128C4DC02230220EB5630
:10AC80003056181A05F02AF90128BBDC03230320EB
:10AC9000EB563056181A05F021F90128B2DCAA88C3
:10ACA000B3889A42AED10122044B1A70DBE7C0464A
:10ACB000BC260020C4260020442500209620002029
:10ACC00008B50248642102F08BF808BDEC2600208C
:10ACD00010B5041CFFF718FB201C01F0CBFB10BDC6
:10ACE00070B5041C86B004F0BFFA201CFFF78AFE82
:10ACF0002388182B44D016D8102B20D0112B58D0D5
:10AD0000022B21D0334D201C01F05CFB201C02F0F3
:10AD100071F9281C211C02F02DFC2F48211C01F088
:10AD20003FFF06B070BD512B15D0552B01D0392BEC
:10AD3000E8D12A4B13211888FFF710FFE2E7A28819
:10AD4000264B244D1A80DEE7244B00211888FFF79C
:10AD500013FF204DD7E7A379002BD3D0A27A043A72
:10AD6000022ACFD8022B00D0012302A90B70C123E5
:10AD70005B008B80194B1888FFF7FAFE154DC2E770
:10AD8000022302AA1380002353806B469E1DBB231F
:10AD9000104D56605B00E85A298BFFF7E7FE3388B9
:10ADA000012BB0D1A421002249000D48FDF7C6FEB9
:10ADB000A9E70B4D281CFDF73FFF032001F0A2F986
:10ADC000281CFDF739FF0122044B52421A80014D25
:10ADD00099E7C04644250020EC260020942000205E
:10ADE0005C22002008B50B78002B08D0012B05D180
:10ADF0008021054809020022FDF7A0FE08BD024897
:10AE0000FDF71AFFFAE7C046CC26002000B595B042
:10AE1000072817D008280AD0002801D015B000BD97
:10AE2000FFF7DCFDFFF7E2FDFFF7A8FEF6E70D48B0
:10AE30000378FF2BF2D00CA904F0ACF90CA801F0B8
:10AE400089FCEBE76A4608231371137304AB009384
:10AE500069460CAB0448029304F0C0F8684601F060
:10AE600097FCDBE7C4220020C822002010B50B7835
:10AE700086B00C1C032B27D0042B16D0022B01D03C
:10AE800006B010BDA421124849000022FDF756FE6D
:10AE9000012302A90B7000238B60CB60A379012BE7
:10AEA000EED10C4804F00AF9EAE78B79022BE7D1DE
:10AEB000CB79002BE4D102AB0093002101220023C7
:10AEC000054803F0DBFCDBE70148FDF7B5FED7E7FB
:10AED0005C220020C42200204425002008B5072859
:10AEE00012D00A2808D0042800D008BD084B13212E
:10AEF0001888FFF733FEF8E70020FFF76FFDFFF734
:10AF000075FDFFF73BFEF0E701F0AEFCEDE7C04654
:10AF10009420002008B5031C0A1C0248191CFDF7E8
:10AF200081F908BDEFBEADDEF0B54D4644465F4643
:10AF30005646FF20F0B4A025012301210C249FB028
:10AF40004001ED05021CDA40114204D01A1CC13246
:10AF5000FF32920054510133202BF3D1A023EE2273
:10AF60000321DB05D20099508021A1224905D2009E
:10AF70009950F94B0CAC9A46231C524603CA03C3A2
:10AF8000201CFDF7D9FE00200521F44AF44BFDF703
:10AF900049FD002800D0CFE10121F24AF248FDF737
:10AFA000B3FD0121F14AF248FDF7AEFDF14AF24945
:10AFB0000020FFF715FD211C0020FFF781FDA223D3
:10AFC000A022DB00D205D5580820ED042D0EED435C
:10AFD000EA49EDB24822EA4BED0904F069FD002888
:10AFE00000D0B3E100210822201CFDF711F9012255
:10AFF0002378201C93432370FFF7BCFDE14804F045
:10B000007DFDE14804F084FD08200A21DF4AFDF7B8
:10B0100019F9002800D094E103AEDD48357004F042
:10B02000ABF8FFF757FA301C03F0FCFE3520002187
:10B0300005226844FDF7ECF801226379904613433A
:10B040000222DBB2914693431A3293430C221343FC
:10B05000DF22134063710723A3710933E371CD4BE2
:10B060000F250C934346211CCB48237103F078FF36
:10B0700001223378AB43134310222B401343337028
:10B08000C64B181C9B4604F045FF594682B2301C43
:10B09000FFF76AFDF1208000FFF762FD0021082222
:10B0A000201CFDF7B5F806239B46238018236380F8
:10B0B0005B46A3802B23201CE380FFF753FD002178
:10B0C0003822201CFDF7A4F84B4623704346A3709A
:10B0D0000523E37043462382B14B321C6361534620
:10B0E000083383CB83C283CB83C283CB83C2AD4B74
:10B0F000321C00930021AC4B201C00F05FFF4B463C
:10B100003370AA4B40227380A94B0021B380434681
:10B11000201CF380FDF77CF8A649201C03F0D2FB2D
:10B120003C2301229A46E35C201CAB4313432022BC
:10B13000904642462B4013435246A354002301320B
:10B14000A354A66302F018F800211422201CFDF776
:10B150005FF8994B01220C93012323710023994638
:10B16000A36064332373637B211CAB4313434246C8
:10B170002B40134301226373A37B9048AB431343DB
:10B1800042462B401343A37300230122E373237C25
:10B19000AB43134342462B401343237401F032FD6B
:10B1A000301C00210822FDF733F85B4633804B4604
:10B1B000B37001230122F37033790021AB431343B1
:10B1C00042462B401343012233717379201CAB4359
:10B1D000134342462B40134301227371B379AB43AF
:10B1E000134342462B401343B3714822FDF710F836
:10B1F000734B4A460C93734BE66063604B46237275
:10B2000063720123A3724B4623744B4663614B4622
:10B2100023764B46E3612E33A3846B4B03262362D4
:10B220000223FF332386CF3BE2540133E65403333A
:10B23000E2542C224B460121A363A35CAB430B4396
:10B2400041462B400B43A35400222D230121E254FD
:10B250003432A35CAB430B4341462B400B43A35416
:10B26000002235230121E2544332A35CAB430B435C
:10B2700041462B400B430121A3540132A35CAB4355
:10B280000B4341462B400B43A3540022452301218D
:10B29000E2544632A35CAB430B4341462B400B4385
:10B2A0000121A3540132A35C4848AB430B43414600
:10B2B0002B400B43A3545346E35C463AAB43134342
:10B2C00052462B400B43A3543D23E35C3B3AAB4334
:10B2D00013433D222B400B43A35400223E23012164
:10B2E000E2543F32A35CAB43194343460D401D4338
:10B2F000211CA55402F026FD00211C22201CFCF775
:10B3000087FF4B460C93A0239B026360F0231B0333
:10B31000A3604B46E38123744B4663612C4B201C96
:10B320002673A36101F02AFE032000F0EBFEFDF777
:10B330006BF8FFF725FCFAE700210022FCF772FF0B
:10B340002AE600210022FCF76DFF65E600210022BD
:10B35000FCF768FF46E6C0466CFF0100CC220020E7
:10B360001D8D0100C1AC0100C0FF0100B1AB0100A7
:10B3700098FF0100DDAE0100CD0C00007C22002012
:10B3800071FB0100E1AC0100D1AC0100942400206C
:10B39000C422002091AB0100C82200209CFF0100C4
:10B3A0006020002089AB01000DAE010015190000DE
:10B3B000EEEEFFFFACFF0100E5AD0100EC26002042
:10B3C0006DAE010085AB0100642000204425002003
:10B3D0008DAB010071DF704772DF704779DF704716
:10B3E0007DDF704765DF7047F0B50488051C83B0CA
:10B3F0000720012C04D01488A01C984202D90C20EC
:10B4000003B0F0BD2E78012E04D16E7802363619C5
:10B41000B342F4D3023B1C1B6B460F1CA4B20818AA
:10B42000991D161CDC80FFF7DBFF0028E8D12B7884
:10B43000022B18D0012B11D0231C0821FE2BDED8A3
:10B440003288581CB85432880020013292B23280BF
:10B45000B954328801329B183380D1E76B789C4213
:10B46000EBD2231CE9E76B46DB8809219C42E5D23D
:10B47000231CE2E7F0B55F46564644464D46F0B41D
:10B4800085B09A460EAB80CB061C1B8800919B466C
:10B490003B88904601930388002B5BD0002399469C
:10B4A00002AB0024DD1C03E033880134A3422ADD13
:10B4B0007368A1009C460422614403A804F021FDA6
:10B4C00003A8291C0022FFF78DFF002826D12B7826
:10B4D0004345E9D14B46002B27D043463A88D31841
:10B4E0005B4539DC524403A8291CFFF77BFF002889
:10B4F00014D13B882A780134D3183B800123994624
:10B500003388A342D4DC4B46002B23D03B88019ADE
:10B51000013B9B1A9BB20C20FF2B18D905B03CBCF9
:10B5200090469946A246AB46F0BD42463B889A18E3
:10B5300002325A4510DC69465246013309789BB203
:10B540003B80D1543A88013292B23A80CAE7111C4A
:10B55000524653540020E1E70C20DFE7F0B55F4688
:10B5600056464D464446031C0020F0B41788108010
:10B57000586B87B0002800D16FE10478022F18D9EA
:10B580000220112508701088013080B210800D54FF
:10B590001088013080B210800C5414880134A4B299
:10B5A0001480186B002800D177E0251C1235BD42AD
:10B5B00007D90C2007B03CBC90469946A246AB4642
:10B5C000F0BD11250D551488013D0134A4B214803D
:10B5D0000D5514880134A4B21480C57B0D55148810
:10B5E0000134A4B21480857B0D5514880134A4B2B3
:10B5F0001480457B0D5514880134A4B21480057B5A
:10B600000D5514880134A4B21480C57A0D551488E0
:10B610000134A4B21480857A0D5514880134A4B283
:10B620001480457A0D5514880134A4B21480057A2B
:10B630000D5514880134A4B21480C5790D551488B1
:10B640000134A4B2148085790D5514880134A4B254
:10B65000148045790D5514880134A4B214800579FD
:10B660000D5514880134A4B21480C5780D55148882
:10B670000134A4B2148085780D5514880134A4B225
:10B68000148045780D5514880134A4B214800078D4
:10B69000085514880134A4B214802E201D5C002D9E
:10B6A00000D0DCE01E1C2D23F35C151C8846002B0B
:10B6B00000D0F7E0B378002B00D024E1F378002B22
:10B6C00016D0E21CBA4200D973E702224146404636
:10B6D0000A5501212A88013292B22A8081542A888F
:10B6E000013292B22A8083542C880134A4B22C8077
:10B6F0007368002B16D01A78E31CBB4200D958E7B8
:10B700000223414640460B550A212B8801339BB248
:10B710002B80C1542B8801339BB22B80C2542B88C1
:10B7200001332B803389002B00D010E1338A002BAA
:10B7300000D076E1338B002B00D08BE1336A002BF5
:10B740004AD02A880C20911DB94200D932E71988C5
:10B7500005388B46052900D82CE7CC4C5C44A4B2B4
:10B76000A146CB4CA446A14500D823E75C88A2465D
:10B77000052C00D81EE7C54C6946A146D1444C466D
:10B78000CC81CC89644500D814E7C24CA34504D0D1
:10B79000A24502D0D34500D90CE70521404681548B
:10B7A0002A880D31013292B22A8081542A880132CE
:10B7B00092B22A80198842441170090A51702A886D
:10B7C000023292B22A805988131C43441970090A24
:10B7D00059702B8802332B80746A002C32D0A288D7
:10B7E0002988131D5B180C20BB4200D9E2E6931C8C
:10B7F000FE2B00D9DEE6434603325A54FF2241466F
:10B800002B8801339BB22B80CA542B8801339BB207
:10B810002B80228843441A70120A5A702B880233F4
:10B820009BB22B80A288002A0CD0A1680538002981
:10B8300000D1BFE64344181C04F063FB2A88A388A8
:10B84000D3182B802C23F35C002B00D098E03378A6
:10B85000002B00D0DEE00020ACE60024A1E6E61CD0
:10B860002238BE4200D9A5E602260E551C241088B7
:10B87000013080B210800C541088013080B21080EA
:10B88000022D00D10FE100D806E1032D00D108E11F
:10B89000042D00D0F7E003240C5414880134A4B222
:10B8A0001480FFE609340C20BC4200D982E604A8CB
:10B8B000FFF790FD002800D07CE6414608222B8847
:10B8C000CA542B88133201339BB22B80CA5402AB6B
:10B8D0009C4609212888153A013080B228806144AD
:10B8E000404404F00EFB2B8802AA0633127A9BB266
:10B8F0002B80002A00D001224146CA542C880134F2
:10B90000A4B22C80D6E604340C20BC4200D951E607
:10B9100004A8FFF763FD002800D04BE60322414650
:10B920002B88CA542B88163201339BB22B80CA5401
:10B930002B8802AA01339BB212892B8043441A70D0
:10B94000120A5A702C880234A4B22C80B6E6341C39
:10B95000083400950197201C022102224346FFF77C
:10B9600089FD002800D025E600950197201C0621BE
:10B9700010224346FFF77EFD002800D01AE6D5E6E8
:10B98000B46A002C00D17EE0A3880233FE2B00D9DC
:10B990000FE60022914616329246163228889346C8
:10B9A0000BE04B465C00B36A4C449C46A4006444E4
:10B9B000A3880233FE2B00D9FBE5424651460133F2
:10B9C00013542B8801339BB22B80D1542B88013325
:10B9D0009BB22B80228843441A70120A5A7028881E
:10B9E000023080B22880A288002A0AD0A1680029EB
:10B9F00049D0404404F085FA2888A388C01880B252
:10BA000028804B460133DBB299465B46F35C4B45DD
:10BA1000C7D81CE7301C41462A1C3B1CFFF7E4FC3E
:10BA2000C8E5341C103400950197201C0321022224
:10BA30004346FFF71FFD002800D0BBE500950197A6
:10BA4000201C072110224346FFF714FD002800D0D8
:10BA5000B0E56FE6341C183400950197201C1421C2
:10BA600002224346FFF706FD002800D0A2E500951C
:10BA70000197201C152110224346FFF7FBFC0028EC
:10BA800000D097E55AE6072094E5C0467FF3FFFF14
:10BA90007DF30000FFFF0000012DF4D100240C54C1
:10BAA000FBE60E54F9E601240C54F6E6F0B54E46DA
:10BAB000574645461F23E0B496B002AA041C0E1C4C
:10BAC000D381002800D171E0C3785B0767D50023DC
:10BAD00002AA9381436B002B00D13EE11B78022226
:10BAE00006ADAB7003230327052104202A700F3213
:10BAF0006A7002AA9381226B002A3AD0112306AD04
:10BB0000EB55013B2B54D37B6B54907B4B1CE8547F
:10BB1000507B8B1CE854107BCB1CE854D07A0B1D57
:10BB2000E854907A4B1DE854507A8B1DE854107AF3
:10BB3000CB1DE854D0790133E85490790133E854AF
:10BB400050790133E85410790133E854D078013347
:10BB5000E85490780133E854013302A88381507887
:10BB6000E854013302A883811278EA5401338381B7
:10BB70009BB22E22A25C002A00D0F1E12D22A25C11
:10BB8000002A00D011E1A278002A00D03DE1E2783D
:10BB9000002A35D0D91C1F2925D90C2000E0072008
:10BBA00016B01CBC90469946A246F0BD002502ABDB
:10BBB0009881002E00D1D4E0F378002BEFD102AAB7
:10BBC00094460E236344301C0EA91A1CFFF7C6FCD2
:10BBD0000028E5D102AB9B7B0EAA02A9097B281C99
:10BBE000FFF7FAFBDCE70220012706ADE854581CFA
:10BBF00002339BB280B22F54EA548BB202AA9381D3
:10BC00006268002A0FD01078DA1C1F2AC5D80221DA
:10BC10000A2706ADE954591C02339BB289B26F540E
:10BC2000E85402AB9A812389002B00D09EE0238A3E
:10BC3000002B00D00AE1238B002B00D025E1236AE2
:10BC4000002B43D002AA92890C20911D1F29A7D84E
:10BC50001888824655460720052DA1D9D24D554456
:10BC6000ADB2AC46D14DA846AC4599D95D88A94640
:10BC7000052D00D894E7CC4D6F46AC46CC446546C4
:10BC8000FD81FD89454500D88AE7C94DAA4504D004
:10BC9000A94502D0CA4500D982E70520122706AD82
:10BCA000A854501C80B22F54901C80B202AFB881AF
:10BCB0001F88281807703F0A477004325B8892B2C9
:10BCC000AD182B701B0A6B7002AB9981676A002F4D
:10BCD0002FD0BB880C20991C02AB9B899A1C55184D
:10BCE0001F2D00D95CE7FE2900D959E706AD0131C7
:10BCF000E954591C89B2F330685492B202A98A817E
:10BD00003988AA180433117098B2090A02AB51702D
:10BD10009881BA88002A0CD0B968002900D13EE782
:10BD2000281804F0EEF802ABBA889B89D31802AA4F
:10BD300093812C23E15C002900D0C5E006AD237877
:10BD4000002B00D135E7201C291C05AA1F23FFF773
:10BD50004BFB002800D12CE722E70027022101201D
:10BD6000C9E602ABDE810022002336E705AB271CC3
:10BD700000931F23083706AD98460193381C022113
:10BD800002222B1CFFF776FB002800D008E705AB4A
:10BD900000934346381C0193062110222B1CFFF709
:10BDA00069FB002800D0FBE641E709330C201F2B7C
:10BDB00000D9F5E60EA8FFF70DFB002800D0EFE64E
:10BDC000082202AB9B8906ADEA545A1C023398B292
:10BDD0001B2102AB9C4692B2A95416319881614452
:10BDE0000622281804F08DF8302002AB02A99B89A6
:10BDF000091809789A1D92B2002900D00121073351
:10BE0000A9549BB202AA9381BDE604330C201F2BD8
:10BE100000D9C5E60EA8FFF7E1FA002800D0BFE67A
:10BE20000322192102AB9B8906ADEA545A1C92B237
:10BE3000A95402AA118E9A1C92B2AD18043329702B
:10BE40009BB2090A02AA69709381A0E605AB271C80
:10BE500000931F23103706AD98460193381C032129
:10BE600002222B1CFFF706FB002800D098E605AB4A
:10BE700000934346381C0193072110222B1CFFF727
:10BE8000F9FA002800D08BE6D5E605AB271C009315
:10BE90001F23183706AD98460193381C142102223F
:10BEA0002B1CFFF7E7FA002800D079E605AB0093DA
:10BEB0004346381C0193152110222B1CFFF7DAFA98
:10BEC000002800D06CE6BAE6A76A002F00D166E62B
:10BED000BB880233FE2B00D95FE602AA90890022BC
:10BEE0009046163291461632924606AD4A460133C6
:10BEF0002B54431C9BB2EA54831C9BB202AA93812D
:10BF00003A88EB181A700430120A5A7080B202ABE9
:10BF10009881BA88002A0FD0B968002900D13EE67E
:10BF2000281803F0EEFF02AB9B89B888C01880B2D6
:10BF300002AB98815346E15C43460133DBB298463D
:10BF40008B4200D3FBE643465F00A36A47449C460E
:10BF5000BF006744BB880233FE2BC7D90C201FE605
:10BF600002201C27591C06AD89B2E8546F541918D9
:10BF700089B282420CD010D9032A0CD0042A00D0F6
:10BF80000DE603226A5403339BB202AA9381F5E5BE
:10BF900001226A54F7E76854F5E7012A00D0FEE56C
:10BFA00000226D182A70EEE77FF3FFFF7DF300009B
:10BFB000FFFF000073DF704774DF7047F8B5051CA2
:10BFC0000E20002D00D17DE0002A00D17AE0002073
:10BFD0000F1C3D4908703D490B6006993C4B1960A8
:10BFE0003C490B1C13CA13C313CA13C313CA13C38C
:10BFF000002107223848FCF70BF9384B384A394EF4
:10C000001A60394A00219A60301C3822FCF700F986
:10C010002B782A1C3370AB781032B370EB78F37046
:10C020006B787370331C103303CA03C3331C103A8C
:10C03000083303CA03C3331C0832183303CA03C3CB
:10C040006B6A002B11D0294B294C7362696A9C6082
:10C050000A881A8088889880002806D000238A6879
:10C06000D25CE25401338342F9D1AB6A002B14D085
:10C07000204B2148B362A96A98608C889C800A880A
:10C080001A800023002C05D08A68D25CC254013388
:10C09000A342F9D12C23EA5CF2542B6A002B06D080
:10C0A000164B33622A6A5188598012881A806B684D
:10C0B000002B03D0124B73606B687360301C391C0B
:10C0C000FFF7F4FCF8BDC0461828002048270020E0
:10C0D000702700207C27002074270020C427002020
:10C0E000A027002004270020F82700203C2700205C
:10C0F0004C27002020280020D42700201C280020C6
:10C10000C0270020F0B50024A34D89B0287001A8F5
:10C110000194FEF74BFC082809D0002805D1019BAB
:10C12000002B05D001229D4B1A7009B0F0BD01947F
:10C130009B4F0021381C0722FCF76AF8994E737850
:10C14000002B58D02B78012B05D0B278002A00D1D3
:10C15000FCE0022B0FD1944A1268002A00D106E1BC
:10C160000121924B0820197090472B78012B00D1A8
:10C170008DE0022B49D0327B002A01D1032B65D000
:10C18000327E002A01D1042B65D0874A1268002A2A
:10C1900003D0033B012B00D899E00022844B1A7096
:10C1A00002AC1822201C0021FCF732F800232A7868
:10C1B000237063602372E360022A00D1BCE04FD990
:10C1C000032A00D1A5E0042A00D09FE0B38B23828C
:10C1D000338C6382774B1A79002A00D1BCE0327825
:10C1E000002A04D0744A1278002A00D1C2E0042246
:10C1F000724B1A703CE0B378002BB6D02B78022B30
:10C20000A9D0012BB7D102232B70B378002B17D004
:10C210007B78002B00D0A8E0BB78002B00D0A4E0F6
:10C22000FB78002B00D0A0E03B79002B00D09CE0F5
:10C230007B79002B00D098E0BB79002B00D094E0F4
:10C2400003232B70337B002B00D083E004232B705F
:10C25000337E002B36D10023584A2B7013709CE795
:10C26000012A53D163822382544B676022701A7073
:10C27000201CFFF79FFE002800D056E74A4B1B68A2
:10C28000002B02D04D4A1078984700204DE7727875
:10C29000002AB8D07A78002A00D076E7BA78002A47
:10C2A00000D072E7FA78002A00D06EE73A79002AC7
:10C2B00000D06AE77A79002A00D066E7BA79002AC6
:10C2C000A1D062E7384B1A68002A00D165E73378BD
:10C2D000002B00D161E7384B1B78002B00D05CE7C6
:10C2E0000121334B07201970904759E7E36004237D
:10C2F0003348023200212272C370FFF7D7FB0028B7
:10C3000000D012E705222D4B1A702A78002AB5D0EA
:10C31000AEE7B38A6382338A2382264B1A79002AD6
:10C320001FD03278002A03D0234A1278002ADDD0A9
:10C330000322224B1A709BE7012323703389676025
:10C340006382736823821D4B1A7091E7022B00D021
:10C3500011E775E7032318E71A7B002A00D03EE7B0
:10C3600045E71A7B002ADCD1E2E702230DE70F49FB
:10C370000A70FBE6E36004231148023200212272B6
:10C38000C370FFF793FB002800D0CEE606220B4BCC
:10C390001A702A78BAE7C046182800201928002009
:10C3A000742700207C27002048270020F427002045
:10C3B000F5270020C42700206C2700202C2800200F
:10C3C0000427002008B50388112B1DD0192B06D097
:10C3D000102B00D008BD8288204B1A80FAE78279A2
:10C3E000002AF7D11E4B1B78022B30D027D9032B04
:10C3F0001DD0042BEED11B4B1A701B4B1B68002B5E
:10C40000E8D000209847E5E70022184B1A70134B3C
:10C4100082881B889A42DDD10120FFF773FE002835
:10C42000D8D0134B1B68002BD4D09847D2E70D4AC5
:10C4300004201370FFF766FE0028F2D1CAE7012B33
:10C44000C8D10220FFF75EFE0028EAD1C2E7032030
:10C45000FFF758FE0028E4D1BCE7C0469820002032
:10C46000182800202C280020482700206C270020B6
:10C4700070270020F0B5023889B0012803D8A94CF4
:10C480002378002B01D109B0F0BD002501A825704B
:10C490000195FEF78BFA082808D0002800D098E014
:10C4A000019B002B03D001232370ECE701959E4FE5
:10C4B0000021381C0722FBF7ABFE9C4D6B78002B4C
:10C4C0005CD09B4E3378012B00D1B6E0AA78002ACD
:10C4D00000D10DE1022B00D1AFE02A7B002A02D16E
:10C4E000032B00D1B3E02A7E002A02D1042B00D115
:10C4F000D9E0904A1268002A03D0033B012B00D8F0
:10C50000AFE000228C4B1A7002AC1822201C0021D4
:10C51000FBF77EFE00233278237063602372E360B2
:10C52000022A00D1C4E064D9032A00D1CAE0042A57
:10C5300000D0B4E0AB8B23822B8C63827F4B1A79C3
:10C54000002A02D11A7B002A07D02A78002A04D0B8
:10C550007B4A1278002A00D1D3E00422794B1A706A
:10C56000201CFFF727FD002833D1724B1B68002BDE
:10C5700000D188E7734A1078984784E7AB786C4E0F
:10C58000002B2DD13378012B3CD0022BA5D1AB78D9
:10C59000002B17D07B78002B00D0B0E0BB78002BAD
:10C5A00000D0ACE0FB78002B00D0A8E03B79002B5A
:10C5B00000D0A4E07B79002B00D0A0E0BB79002B59
:10C5C00000D09CE0032333702B7B002B3FD0032350
:10C5D0008FE75D4B1B68002B00D154E7984752E76B
:10C5E0003378022B29D0012B00D076E70223337059
:10C5F000CDE7012A53D163822382524B67602270B8
:10C600001A70ADE76A78002AF0D07A78002A00D054
:10C610006FE7BA78002A00D06BE7FA78002A00D0DA
:10C6200067E73A79002A00D063E77A79002A00D0D8
:10C630005FE7BA79002AD9D05BE73E4A1268002A40
:10C640005AD00121414B0820197090479AE70423E2
:10C6500033702B7E002B26D0364B1A68002A00D16F
:10C660004FE72B78002B00D14BE7354B1B78002B85
:10C6700000D046E70121304B07201970904743E76F
:10C68000E36004233248023200212272C370FFF7B4
:10C690000DFA00289DD105222A4B1A703278002A03
:10C6A00000D162E75CE70023264A3370137028E765
:10C6B000012323702B89676063826B682382214B7F
:10C6C0001A704DE7AB8A63822B8A23821B4B1A793F
:10C6D000002A02D11A7B002A06D02A78002A03D029
:10C6E000174A1278002ACBD00322164B1A7037E76C
:10C6F000022B00D0F1E665E714490A7043E70223F4
:10C70000F7E6E36004231248023200212272C3706C
:10C71000FFF7CCF9002800D05BE70622094B1A701E
:10C720003278BCE719280020742700207C270020DD
:10C730001828002048270020F5270020C4270020C3
:10C740006C2700202C28002070270020F4270020D0
:10C75000042700200C49031C0A780820002A00D175
:10C7600070471878094A107058785070987890700F
:10C77000D878D07018791071587950719B79002051
:10C78000937100230B70EBE7F4270020742700203F
:10C7900030B5314C031C22780820002A00D130BD6E
:10C7A0001A792E480271197B0173002926D09868E6
:10C7B00005682B480560012920D09D686D6845609B
:10C7C00002291BD09D68AD688560032916D09D683D
:10C7D000ED68C560042911D09D682D6905610529A2
:10C7E0000CD09D686D694561062907D09D68AD69CB
:10C7F0008561072902D09968C969C161002A26D0DC
:10C800001968086817490860012A20D0186840682C
:10C810004860022A1BD0186880688860032A16D0F6
:10C820001868C068C860042A11D0186800690861D7
:10C83000052A0CD0186840694861062A07D0186894
:10C8400080698861072A02D01B68DB69CB610023FD
:10C8500000202370A3E7C046F5270020C42700204E
:10C86000F8270020A0270020F0B5474680B4BB4C35
:10C8700088B02378002B00D1A1E0B94D2B78002B94
:10C8800000D09CE0B74F3B78002B00D09CE0002309
:10C89000012601A82E7098460193FEF787F8082814
:10C8A00008D0002800D095E0019B002B04D0AE4BAF
:10C8B0001E7085E043460193AC4B0021181C0722F3
:10C8C0009846FBF7A5FC6378002B00D088E0A3789E
:10C8D000002B00D197E03B78022B00D189E0012B9F
:10C8E00000D096E002233B70A378002B1DD0434676
:10C8F0005B78002B00D01DE143469B78002B00D0D5
:10C9000018E14346DB78002B00D013E143461B7946
:10C91000002B00D00EE143465B79002B00D009E1EB
:10C9200043469B79002B00D004E103233B70237B1B
:10C93000002B00D172E003238D4A1268002A03D035
:10C94000033B012B00D873E000228A4B1A7002AE21
:10C950001822301C0021FBF75BFC00233A7833706F
:10C9600073603372F360022A00D1BCE000D879E032
:10C97000032A00D1C2E0042A00D0B0E0A38B3382A6
:10C98000238C73827C4B1A79002A02D11A7B002AED
:10C9900006D02278002A03D02A78002A00D1CBE0E2
:10C9A0000422764B1A70301CFFF704FB002811D1CB
:10C9B0006F4B1B68002B02D0704A107898470020FC
:10C9C00008B004BC9046F0BDFFF7F6FA002800D18D
:10C9D0005DE7F5E76A4B1B68002BF0D09847EEE760
:10C9E0003B78012B05D0A278002A00D19BE0022BD6
:10C9F0000FD15F4A1268002A00D198E00121614BF3
:10CA00000820197090473B78012B35D0022B00D1BC
:10CA10006AE7227B002A19D1032B17D104233B702C
:10CA2000237E002B19D0524B1A68002A00D18BE7C5
:10CA30002378002B00D187E72B78002B00D083E7E9
:10CA400001214C4B07201970904780E7227E002A75
:10CA500000D071E7042B00D06EE70023474A3B70FB
:10CA6000137071E7012A3AD1414673823382434BF6
:10CA7000716032701A7096E76278002A00D131E74F
:10CA800042465278002A00D056E742469278002A61
:10CA900000D051E74246D278002A00D04CE7424607
:10CAA0001279002A00D047E742465279002A00D086
:10CAB00042E742469279002A00D113E73CE7F3604F
:10CAC00004233148023200213272C370FEF7EEFFB8
:10CAD000002800D07EE70522284B1A703A78002AF9
:10CAE00000D165E75FE74346736001233370238914
:10CAF000738263683382214B1A7054E7A38A73826E
:10CB0000238A33821C4B1A79002A02D11A7B002A0D
:10CB100005D02278002A02D02A78002ACFD003221A
:10CB2000164B1A703FE7022B00D072E7FDE615495D
:10CB30000A7069E70223FFE6F36004231248023219
:10CB400000213272C370FEF7B1FF002800D041E728
:10CB500006220A4B1A703A78C1E7C0467C270020AB
:10CB60006C27002018280020192800207427002096
:10CB700048270020F5270020C42700202C2800206B
:10CB800070270020F427002004270020A0DF704732
:10CB9000A2DF7047A3DF7047A4DF7047A6DF7047AE
:10CBA00030B583B0002808D0002906D00B88112B9F
:10CBB00023D0502B03D0102B1CD003B030BD037DED
:10CBC000002BFAD0CA8843899A42F6D1CB8B022B2C
:10CBD000F3D10468002CF0D00B1C212220259A5C94
:10CBE0005B5D120213430122134001A953400B70F5
:10CBF000A047E2E78B884382DFE701235B42438261
:10CC0000DBE7C046F0B54D465F4656464446F0B4B5
:10CC10000E2595B0002816D0002914D00B6889463F
:10CC2000036001235B4243820A79037406A902333D
:10CC30008B70684B0275071C021D01200B80FFF7EB
:10CC4000A5FF051E07D0281C15B03CBC9046994690
:10CC5000A246AB46F0BD3B7D002B00D09EE00DAD63
:10CC6000281C00211C22FBF7D3FA02222B78397DE5
:10CC70001A4301239A460B401801D3B21022934362
:10CC800003432B70002390464A1E91419B466B60E4
:10CC9000EB602B61494204AB0B406B615B46524633
:10CCA000AB6102AB9A754C4B05AE02AA9382002190
:10CCB0000322301CFBF7ACFA4B469B7B06223370F9
:10CCC0004B46DB7B08AC7370B37800219343043A86
:10CCD00013430822DBB293434246934352469343A5
:10CCE000B3704B461B7B02AAD370201C1422FBF7A7
:10CCF0008FFA07AB0893534623815B466381534603
:10CD0000A38102AB033323616660291CB888BB1D75
:10CD1000221CFFF73DFF051E95D14B469B68002B5B
:10CD200055D0012302AA93752C4B00219382301C0D
:10CD30000322FBF76DFA4B461B7C0622337000235F
:10CD40007370B3789343043A13430822DBB29343DE
:10CD50004246934352469343B37003AB98464B46C7
:10CD60004046996801F0A8FD814600211422201C4C
:10CD7000FBF74EFA07AB23606A464B46D380434627
:10CD8000D0883A1C658166602081A0812361F88883
:10CD90000E32211CFFF7FEFE051C54E704AC0021F7
:10CDA0000322201CFBF734FA0F21012223788B4346
:10CDB000134310220B40134323704B4606225B7B28
:10CDC0006370A378934302221343A37047E7F8816B
:10CDD00039E7C0460F180000192A00000829000092
:10CDE000F0B589B06B46041CDE1DD971002822D035
:10CDF000027CCBB200259A421AD002AF0021082251
:10CE0000381CFBF705FA01237D803B807E60608A39
:10CE1000E1883A1CFFF7C0FE051E09D13378628A0B
:10CE20002374114B9A4208D0237D0835002B06D17C
:10CE3000281C09B0F0BD0E25FAE70825F8E704AD77
:10CE4000281C00211022FBF7E3F9E388291C2B8022
:10CE50000123AB707B88AF60AB807B68EB60608A3E
:10CE6000FFF79CFE051CE3E7FFFF000075DF70473E
:10CE700076DF70477ADF70477BDF704710B5184B5D
:10CE800082B01888174B984214D0174A174C137861
:10CE90000133DBB21370217B99420DD20023137052
:10CEA000237C002B12D16369002B03D0002201A840
:10CEB0000270984702B010BD0D49FFF7D7FF002858
:10CEC000F8D0A369002BF5D09847F3E73B21FFF793
:10CED000CFFF0028E7D0A369002BE4D09847E2E712
:10CEE00078280020FFFF0000382800203C28002080
:10CEF0007C28002030B51B4B1B4A5B88118883B00F
:10CF000099420FD852889A420CD3184B5B69002B78
:10CF100003D0012201A802709847154C002323700A
:10CF200003B030BD124C2378002B08D00F4B5B6947
:10CF3000002BF3D0002201A802709847EEE70D4BBA
:10CF40000A4D1B78002B0BD0A9680B480022FBF779
:10CF5000F5FD0028E2D0AB69002BDFD09847DDE774
:10CF60006968F2E7302800207C2800203C28002057
:10CF70002D2800203828002058280020164938B5D0
:10CF8000021C0B1C32CA32C332CA32C312681A6086
:10CF90000022124B01681A70002916D0104C08327A
:10CFA000201C02F0AEFF201CFFF764FF00280BD10D
:10CFB00001220C4B52421A8000220B4B0B481A7074
:10CFC00000210B4AFBF7A0FD38BD0548FFF754FFD1
:10CFD0000028EDD0F8E7C0463C2800202D2800208E
:10CFE0007C2800207828002038280020C4FF010079
:10CFF0007DCE010010B50388112B35D021D9122B1D
:10D0000017D0502B1CD1214CC288E3899A4217D1EA
:10D01000C38B022B14D11E33C35CDB070ED41C4818
:10D02000FBF70AFE00280BD0A369002B08D0984715
:10D0300006E0811D0822174802F063FFFFF75AFF40
:10D0400010BD102BFCD1011C8288134B16311A80A5
:10D050001048082202F055FF0022104B1A700B4BAB
:10D06000DB89002BECD1E9E701220B4B52421A80FD
:10D0700000220A4B06481A70FBF7DEFD0028DFD0BD
:10D08000024B9B69002BDBD09847D9E73C28002056
:10D090005828002030280020782800203828002038
:10D0A000A0DF7047A2DF7047F0B556464D464446B4
:10D0B0005F46F0B491B00190894690469A460029A7
:10D0C00051D04346002B04D1002000210022FBF761
:10D0D000A9F8022509AC201C00211C22FBF798F8B6
:10D0E000237803AE2B43237001239B46B3706B461A
:10D0F00000279B8802A80021032233806760E76035
:10D1000027616761A761FBF783F853461B7802AA82
:10D11000137053465B780021537093780622934333
:10D120001D43E7231D405B469D4302AB9D7004AD4C
:10D13000281C0E32FBF76CF802AB6B6043462B8168
:10D14000AB814B462B610B4B211C18882A1C1A9B68
:10D1500004966F81FFF7A6FF11B03CBC904699463C
:10D16000A246AB46F0BD002000210022FBF75AF892
:10D17000A7E7C046CC280020F0B55F464D4656468E
:10D1800044460123F0B495B004A98B70A14B071C51
:10D190000B80A14B01201A1C9946FFF781FF002844
:10D1A00000D0E4E03A88002A00D0E7E03A89002A7B
:10D1B00000D0F1E03A8A002A00D0F9E03A8B002A48
:10D1C00000D001E13A8C002A00D009E13A8D002A12
:10D1D00000D011E13B6B002B5FD01A7806AD2A70AE
:10D1E0000022022692465A780DAC6A709A78002185
:10D1F000AA70DA78201CEA701A792A719B681A0AD8
:10D200006B71AA711B0C1C22EB71FBF701F82378E0
:10D2100000213343237053466360E36023616361FD
:10D22000A361013398466B4642469A756A467B4B2A
:10D2300003A893820322FAF7EBFF3C236A46FB5CC8
:10D24000002113733B1C3C335B785373937B0622A2
:10D2500093431E430823F6B29B469E4308339E43E6
:10D2600043469E436B469E7308AE0E32301CFAF75F
:10D27000CFFF05AB089303AB73605B463381534626
:10D2800073815B46B3814B46211C1888321C644B6A
:10D290003561FFF707FF002869D17B6B002B0AD0AF
:10D2A00019681A795F4B604800933B1C3C33FFF7C9
:10D2B000FBFE00285BD1BB6B002B00D1A8E01A78E5
:10D2C00006AD2A705A880DAC6A70120AAA709A8844
:10D2D0000021EA70120A2A71DB881C226B71201C63
:10D2E0001B0AAB71FAF794FF02229046424623785C
:10D2F00003AE1343237000239A466360E360236107
:10D300006361A36101339B466B465A469A756A4630
:10D31000464B00219382301C0322FAF779FF3C230D
:10D32000FB5C062233703B1C3C335B78002173703E
:10D33000B378934342461A43171CE7231F405B46CA
:10D340009F43B77008AF1422381CFAF761FF05AB92
:10D350000893072352463B81BB814B467A8118884C
:10D36000211C3A1C324B7E603D61FFF79BFE15B0DD
:10D370003CBC90469946A246AB46F0BD2D4B2E488C
:10D3800000933B1C79683C33FFF78EFE0028EED1FA
:10D390003A89002A00D10DE7284B294800933B1C0D
:10D3A000F9683C33FFF780FE002800D102E7DEE792
:10D3B000244B254800933B1C79693C33FFF774FEEE
:10D3C000002800D1FAE6D2E7204B214800933B1C0D
:10D3D000F9693C33FFF768FE002800D1F2E6C6E7A2
:10D3E0001C4B1D4800933B1C796A3C33FFF75CFEE5
:10D3F000002800D1EAE6BAE7184B194800933B1C15
:10D40000F96A3C33FFF750FE002800D1E2E6AEE7B0
:10D410000020ACE70A180000CC280020232A0000D6
:10D4200094280020A42800202A2A0000502A000066
:10D43000AC2800209C280020292A00008C280020ED
:10D44000242A0000BC280020252A0000B42800203F
:10D45000272A0000C4280020262A00008428002053
:10D46000282A0000A0DF7047A1DF7047A2DF7047C5
:10D47000A3DF7047A4DF7047A5DF7047A6DF7047C2
:10D4800065DF7047F0B544465F4656464D46F0B4FA
:10D4900093B003AE904600900F1C301C0021032275
:10D4A0000193FAF7B5FE012399460F339A464B468E
:10D4B00052461343337043461B780A3A7370B3786D
:10D4C0000BAC9343043A93461343201C00211A32B9
:10D4D000B370FAF79DFE43460F229B7821781340E4
:10D4E0005A1E9341DA005B460B4308218B431343DA
:10D4F0005246002513434A46237002AB9F8104AF76
:10D500009A73291C381C032266616560E5602561F9
:10D51000A561FAF77DFE43465B7806223B704346E1
:10D520009B7806AE7B70BB78291C93435A46134305
:10D5300006329343524693434A46301C9343133278
:10D54000BB70FAF765FE05AB06930823B381009B19
:10D55000211C1888321C019B7760358175813561EB
:10D56000FFF784FF13B03CBC90469946A246AB46F9
:10D57000F0BDC046F0B5474680B40B8886B0112B8D
:10D5800000D194E1041C112B00D867E1502B09D085
:10D59000512B03D18B79012B00D18EE106B004BC55
:10D5A0009046F0BDB7225200CB88825A9A4200D1F1
:10D5B00078E242899A4200D1DAE2A9225200825AE4
:10D5C0009A4200D19CE2A7225200825A9A4200D18C
:10D5D000ADE2B1225200825A9A4200D1B0E2AF22AB
:10D5E0005200825A9A4200D170E2827C002A00D115
:10D5F0007DE0008B984200D1CDE2012A00D8EAE21A
:10D60000608C984200D1EDE2022A33D0A08D98427E
:10D6100000D1F7E2032A2DD0E08E984200D1EFE24C
:10D62000042A27D04020205A984200D1E6E2052A59
:10D6300020D04A20205A984200D1DDE2062A19D093
:10D640005420205A984200D1D4E2072A12D05E20FA
:10D65000205A984200D1CBE2082A0BD06820205AE9
:10D66000984200D1C2E2092A04D07220205A98427E
:10D6700000D1B9E2A08A984200D1B0E2E08B984292
:10D6800000D157E3022A32D0208D984200D1EEE239
:10D69000032A2CD0608E984200D1E5E2042A26D0DD
:10D6A000A08F984200D1DCE2052A20D04620205AE3
:10D6B000984200D1CFE2062A19D05020205A984231
:10D6C00000D1C5E2072A12D05A20205A984200D130
:10D6D000BBE2082A0BD06420205A984200D1B1E264
:10D6E000092A04D06E22A25A9A4200D1B6E27822C8
:10D6F000A25C002A43D07A20205A984200D104E349
:10D70000012A3CD98420205A984200D1FAE2022A08
:10D7100035D08E20205A984200D1F0E2032A2ED034
:10D720009820205A984200D1E6E2042A27D0A2206D
:10D73000205A984200D1DCE2052A20D0AC20205AA1
:10D74000984200D1D2E2062A19D0B620205A984237
:10D7500000D1C8E2072A12D0C020205A984200D136
:10D76000BEE2082A0BD0CA20205A984200D1A2E279
:10D77000092A04D0D422A25A9A4200D198E2DE2289
:10D78000A25C002A00D109E7E020205A984200D18B
:10D79000CEE2012A00D801E7EA20205A984200D1BF
:10D7A000C4E2022A00D1F9E6F420205A984200D1BE
:10D7B000BAE2032A00D1F1E6FE20205A984200D1B5
:10D7C000B0E2042A00D1E9E684204000205A9842C1
:10D7D00000D1A5E2052A00D1E0E689204000205AC8
:10D7E000984200D19AE2062A00D1D7E68E20400066
:10D7F000205A984200D18FE2072A00D1CEE693202A
:10D800004000205A984200D184E2082A00D1C5E69F
:10D8100098204000205A984200D179E2092A00D18C
:10D82000BCE69D225200A25A9A4200D0B6E60922D6
:10D8300003202568002D00D1B0E6042601AB1E7040
:10D84000AD4E98719E80DA718A8B201C1A81CA8B2A
:10D85000203104915A81191CA8479FE6102B00D053
:10D860009CE6BB258B886D0043534389002B00D178
:10D8700094E66B46DF1C0123984601AE0021082286
:10D88000301C3B70FAF7C4FC4346338000237760BA
:10D890007380605B6189321CFFF7ECFD002800D1CA
:10D8A0007CE66368002B00D178E6984776E6012293
:10D8B000BB2352425B00C25270E6827C0B89002A75
:10D8C0003ED0808A984200D19EE1012A38D9E08B6F
:10D8D000984200D19BE1022A32D0208D984200D19B
:10D8E0009BE1032A2CD0608E984200D192E1042A59
:10D8F00026D0A08F984200D19BE1052A20D0462057
:10D90000205A984200D191E1062A19D05020205A7D
:10D91000984200D187E1072A12D05A20205A984213
:10D9200000D17DE1082A0BD06420205A984200D112
:10D9300085E1092A04D06E22A25A9A4200D17BE1E5
:10D940007822A25C002A43D07A20205A984200D143
:10D9500090E1012A3CD98420205A984200D192E1DA
:10D96000022A35D08E20205A984200D191E1032A14
:10D970002ED09820205A984200D187E1042A27D03F
:10D98000A220205A984200D18FE1052A20D0AC2055
:10D99000205A984200D185E1062A19D0B620205A93
:10D9A000984200D17BE1072A12D0C020205A984229
:10D9B00000D171E1082A0BD0CA20205A984200D128
:10D9C0005EE1092A04D0D422A25A9A4200D154E13D
:10D9D000DE22A25C002A00D1E0E5E020205A984235
:10D9E00000D17BE1012A00D8D8E5EA20205A9842EC
:10D9F00000D171E1022A00D1D0E5F420205A9842EA
:10DA000000D167E1032A00D1C8E5FE20205A9842E0
:10DA100000D15DE1042A00D1C0E584204000205AF5
:10DA2000984200D152E1052A00D1B7E58920400093
:10DA3000205A984200D147E1062A00D1AEE58E2057
:10DA40004000205A984200D13CE1072A00D1A5E5C8
:10DA500093204000205A984200D131E1082A00D199
:10DA60009CE598204000205A984200D126E1092ADE
:10DA700000D193E59D225200A25A9A4200D08DE532
:10DA8000092003252268002A00D187E5072601AB7B
:10DA90001E70194ED8719E809D71201C0591191C15
:10DAA00090477BE5CB8B012B00D077E50268002AFD
:10DAB00000D173E51F33CB5C002B02D0012B00D0CB
:10DAC0006CE501A90B70201C904767E50268002AED
:10DAD00000D163E5042001AB18700848988000204D
